:020000040000FA
:100000000C947C000C94A4000C94A4000C94A40008
:100010000C94A4000C94A4000C94A4000C94A400D0
:100020000C94A4000C94A4000C94A4000C94A400C0
:100030000C94A4000C94A4000C94A4000C94A400B0
:100040000C94D3030C94A4000C9443040C941D044E
:100050000C94A4000C94A4000C94A4000C94A40090
:100060000C94A4000C94A4004E414E494E4954599E
:10007000494E46CDCCCC3D0AD7233C17B7D1387773
:10008000CC2B329595E6241FB14F0A000020410089
:1000900000C84200401C4620BCBE4CCA1B0E5AAED3
:1000A000C59D7400000000240027002A0000000005
:1000B00000250028002B00040404040404040402A6
:1000C00002020202020303030303030102040810F5
:1000D00020408001020408102001020408102000C2
:1000E00000000800020100000304070000000000F7
:1000F000000000007504930711241FBECFEFD8E065
:10010000DEBFCDBF22E0A8ECB1E001C01D92AF3848
:10011000B207E1F711E0A0E0B1E0EEE9FBE102C0D7
:1001200005900D92A83CB107D9F710E0CBE7D0E0DD
:1001300004C02197FE010E94CA0BCA37D107C9F734
:100140000E94E9040C94C20D0C940000E8EEF0E06B
:100150002491E4EDF0E09491E0ECF0E0E491EE2302
:10016000C9F0222339F0233001F1A8F4213019F12C
:10017000223029F1F0E0EE0FFF1FE355FF4FA5916C
:10018000B4912FB7F894EC91811126C090959E23DD
:100190009C932FBF08952730A9F02830C9F0243050
:1001A00049F7209180002F7D03C0209180002F7798
:1001B00020938000DFCF24B52F7724BDDBCF24B57B
:1001C0002F7DFBCF2091B0002F772093B000D2CFAE
:1001D0002091B0002F7DF9CF9E2BDACFCF93DF9304
:1001E00090E0FC01E553FF4F249189549F4FFC019F
:1001F00084918823D1F090E0880F991FFC01ED5580
:10020000FF4FA591B491FC01E355FF4FC591D491E7
:1002100061110EC09FB7F8948C91E22FE0958E2368
:100220008C932881E223E8839FBFDF91CF910895CB
:100230008FB7F894EC91E22BEC938FBFF6CFAF928F
:10024000BF92CF92DF92EF92FF920F931F93CF93C3
:10025000DF936C017B018B01040F151FEB015E0125
:10026000AE18BF08C017D10759F06991D601ED91BA
:10027000FC910190F081E02DC6010995892B79F759
:10028000C501DF91CF911F910F91FF90EF90DF900B
:10029000CF90BF90AF900895FC01538D448D252FD2
:1002A00030E0842F90E0821B930B541710F0CF9610
:1002B000089501970895FC01918D828D981761F042
:1002C000A28DAE0FBF2FB11D5D968C91928D9F5F59
:1002D0009F73928F90E008958FEF9FEF0895FC0138
:1002E000918D828D981731F0828DE80FF11D858DEB
:1002F00090E008958FEF9FEF0895FC01918D228D7E
:10030000892F90E0805C9F4F821B91098F73992702
:10031000089586EE91E00E947D0121E0892B09F489
:1003200020E0822F0895FC01A48DA80FB92FB11DE4
:10033000A35ABF4F2C91848D90E001968F7399271B
:10034000848FA689B7892C93A089B1898C918370F9
:1003500080648C93938D848D981306C00288F389F2
:10036000E02D80818F7D80830895EF92FF920F931F
:100370001F93CF93DF93EC0181E0888F9B8D8C8D51
:1003800098131AC0E889F989808185FF15C09FB745
:10039000F894EE89FF896083E889F9898081837008
:1003A000806480839FBF81E090E0DF91CF911F91B7
:1003B0000F91FF90EF900895F62E0B8D10E00F5FD8
:1003C0001F4F0F731127E02E8C8D8E110CC00FB6AE
:1003D00007FCFACFE889F989808185FFF5CFCE0146
:1003E0000E949301F1CFEB8DEC0FFD2FF11DE35A2D
:1003F000FF4FF0829FB7F8940B8FEA89FB898081C9
:100400008062CFCFCF93DF93EC01888D8823B9F042
:10041000AA89BB89E889F9898C9185FD03C080810F
:1004200086FD0DC00FB607FCF7CF8C9185FFF2CF8C
:10043000808185FFEDCFCE010E949301E9CFDF914E
:10044000CF910895FC0101900020E9F73197AF01A9
:10045000481B590BBC0186EE91E00C941F018F9252
:100460009F92AF92BF920F931F93CF93DF93CDB71D
:10047000DEB7A1970FB6F894DEBF0FBECDBF19A2AD
:10048000423008F44AE08E010F5D1F4F842E912CFC
:10049000B12CA12CA50194010E94A80BE62FB90153
:1004A000CA01EA30F4F4E05DD801EE938D01232B0C
:1004B000242B252B79F790E080E0109719F0CD01DF
:1004C0000E942202A1960FB6F894DEBF0FBECDBFE8
:1004D000DF91CF911F910F91BF90AF909F908F9020
:1004E0000895E95CE1CFCF93DF930E942202EC01F3
:1004F0008CE191E00E9422028C0F9D1FDF91CF9131
:100500000895CF93DF93EC01809183029091840250
:10051000009759F020918502309186022C173D07F3
:1005200020F081E0DF91CF910895BE016F5F7F4F92
:100530000E94F50C009789F09093840280938302C7
:10054000D0938602C0938502209187023091880261
:10055000232B39F7FC011082E4CF80E0E3CFFF9238
:100560000F931F93CF93DF9300D0CDB7DEB7FF2457
:10057000F39486EE91E00E947D01892B51F186EE85
:1005800091E00E945B018A3019F4F092D001F1CF22
:1005900089831A8200918702109188020F5F1F4F92
:1005A000C8010E948102882321F3209183023091A7
:1005B00084028091870290918802BE016F5F7F4F15
:1005C000820F931F0E94BB0D109388020093870235
:1005D000D0CF0F900F90DF91CF911F910F91FF908F
:1005E00008950E94890181110C94AF0208954F92E1
:1005F0005F926F927F928F929F92AF92BF92CF92B3
:10060000DF92EF92FF920F931F93CF936B017C01C8
:10061000742EAC019B010E94A30B882399F08FE1FB
:1006200091E0CF911F910F91FF90EF90DF90CF90CD
:10063000BF90AF909F908F907F906F905F904F9002
:100640000C94220246015701E894B7F82FEF3FEFD0
:100650004FE75FE7C501B4010E94A30B81110DC0F4
:100660002FEF3FEF4FE75FE7C501B4010E9411098B
:1006700018161CF483E291E0D4CF2FEF3FEF4FE741
:100680005FE4C701B6010E949E0B18161CF487E2B6
:1006900091E0C7CF2FEF3FEF4FE75FECC701B60107
:1006A0000E94110987FDF3CF20E030E0A901C701C6
:1006B000B6010E94110910E000E087FF0AC06DE258
:1006C00086EE91E00E94B5018C01F7FAF094F7F8FC
:1006D000F094C0E060E070E080E09FE37C1641F0C1
:1006E00020E030E040E251E40E94F60ACF5FF6CF0E
:1006F000A70196010E948A0A2B013C010E946F0B00
:100700004B015C014AE00E942F027C01E00EF11EC9
:10071000CC23C1F1C501B4010E9416099B01AC01B3
:10072000C301B2010E94890A4B015C016EE286EEB0
:1007300091E00E94B501E80EF91EC15018F120E0C9
:1007400030E040E251E4C501B4010E9477092B0179
:100750003C010E946F0B4B01B12CA12C4AE0C5015A
:10076000B4010E942F02E80EF91EC501B4010E94D7
:1007700016099B01AC01C301B2010E94890A4B0119
:100780005C01DBCFC701CF911F910F91FF90EF90DC
:10079000DF90CF90BF90AF909F908F907F906F90A1
:1007A0005F904F9008951F920F920FB60F921124F1
:1007B0002F933F938F939F93AF93BF938091E201C9
:1007C0009091E301A091E401B091E5013091E10144
:1007D00023E0230F2D3758F50196A11DB11D20935D
:1007E000E1018093E2019093E301A093E401B093CF
:1007F000E5018091DD019091DE01A091DF01B091D2
:10080000E0010196A11DB11D8093DD019093DE01F1
:10081000A093DF01B093E001BF91AF919F918F91C1
:100820003F912F910F900FBE0F901F90189526E8C3
:10083000230F0296A11DB11DD2CF1F920F920FB6AA
:100840000F9211242F933F934F935F936F937F9356
:100850008F939F93AF93BF93EF93FF9386EE91E0B7
:100860000E949301FF91EF91BF91AF919F918F9162
:100870007F916F915F914F913F912F910F900FBE9C
:100880000F901F9018951F920F920FB60F92112480
:100890002F938F939F93EF93FF93E091F601F09145
:1008A000F7018081E091FC01F091FD0182FD1BC008
:1008B00090818091FF018F5F8F73209100028217DA
:1008C00041F0E091FF01F0E0EA51FE4F958F8093F7
:1008D000FF01FF91EF919F918F912F910F900FBE8C
:1008E0000F901F9018958081F4CF1092E90110921B
:1008F000E80188EE93E0A0E0B0E08093EA019093F5
:10090000EB01A093EC01B093ED018EE091E09093A8
:10091000E7018093E60185EC90E09093F3018093EA
:10092000F20184EC90E09093F5018093F40180EC67
:1009300090E09093F7018093F60181EC90E0909322
:10094000F9018093F80182EC90E09093FB01809391
:10095000FA0186EC90E09093FD018093FC011092E7
:10096000FF011092000210920102109202021092F6
:1009700084021092830210928602109285021092D5
:1009800088021092870290E080E00E94810220910C
:10099000830230918402811113C02115310519F0B1
:1009A000C9010E946C0C1092840210928302109272
:1009B0008802109287021092860210928502089592
:1009C00010928802109287026EE171E0C9010C94C6
:1009D000BB0DCF93DF93CDB7DEB728970FB6F89452
:1009E000DEBF0FBECDBF789484B5826084BD84B570
:1009F000816084BD85B5826085BD85B5816085BD1A
:100A000080916E00816080936E00109281008091D1
:100A10008100826080938100809181008160809359
:100A20008100809180008160809380008091B1007E
:100A300084608093B1008091B00081608093B000A9
:100A400080917A00846080937A0080917A0082603D
:100A500080937A0080917A00816080937A008091FF
:100A60007A00806880937A001092C100E091F601CC
:100A7000F091F70182E08083E091F201F091F301BF
:100A80001082E091F401F091F5018FEC80831092D7
:100A9000FE01E091FA01F091FB0186E08083E09194
:100AA000F801F091F901808180618083E091F80183
:100AB000F091F901808188608083E091F801F091E4
:100AC000F901808180688083E091F801F091F9015B
:100AD00080818F7D808361E089E00E94EE0060E08C
:100AE0008EE00E94EE0061E089E00E94EE0080E06E
:100AF0000E94A6008AE090E00E9481028BE291E0D1
:100B00000E94730287E491E00E94730210E4109344
:100B10007C0080917A00806480937A0080917A00D2
:100B200086FDFCCF6091780070917900072E000C53
:100B3000880B990B0E94180920E030EC4FE754E431
:100B40000E94F60A20E030E040EA50E40E94770973
:100B50009B01AC010E948A0A6093D9017093DA016B
:100B60008093DB019093DC018FB7F8944090E20111
:100B70005090E3016090E4017090E5018FBF809197
:100B8000D5019091D601A091D701B091D801A301D0
:100B90009201281B390B4A0B5B0BDA01C9010A973A
:100BA000A105B10508F4F8C02091D9013091DA010E
:100BB0004091DB015091DC016091000170910101D5
:100BC00080910201909103010E94890A4B015C010E
:100BD00020E030E040EA50E40E94770969837A839C
:100BE0008B839C832091CC013091CD014091CE012B
:100BF0005091CF01C501B4010E948A0A6B017C01AA
:100C000020E030E048EC52EC0E94110987FD59C009
:100C100020E030E048EC52E4C701B6010E949E0B90
:100C200018160CF455C0C092CC01D092CD01E092C0
:100C3000CE01F092CF012091C8013091C9014091BD
:100C4000CA015091CB01C501B4010E94890A20E07C
:100C500030E040E05FE30E9477096D837E838F83FD
:100C6000988720E030E040E05FE3C701B6010E94D2
:100C7000770929813A814B815C810E948A0A9B0114
:100C8000AC016D817E818F8198850E948A0A6B01FB
:100C90007C0120E030E0A9010E94110987FD1FC0FE
:100CA00020E030E04FE753E4C701B6010E949E0BFD
:100CB0001816C4F4C12CD12C8FE7E82E83E4F82E4B
:100CC00011C0C12CD12C28ECE22E22ECF22EABCF9D
:100CD000C12CD12C98ECE92E92E4F92EA4CFC12C92
:100CE000D12C7601C092D101D092D201E092D301F1
:100CF000F092D4018092C8019092C901A092CA01D9
:100D0000B092CB01C701B6010E94680B4B017B0179
:100D100061E089E00E94EE008114910409F0A7C00F
:100D200080E00E94A6004092D5015092D6016092C8
:100D3000D7017092D8018EE691E00E942202609164
:100D4000000170910101809102019091030142E044
:100D50000E94F70287E791E00E9422026091D90188
:100D60007091DA018091DB019091DC0142E00E94F8
:100D7000F70284E891E00E9422026091D101709113
:100D8000D2018091D3019091D40142E00E94F702F8
:100D90008CE191E00E9422028091D001882309F425
:100DA0005EC08091830290918402009709F4A8C0EC
:100DB0000E949C076B017C0120E030E0A9010E94A9
:100DC0009E0B87FDA1C020E030E040EA50E4C7015F
:100DD000B6010E94110918160CF496C0C0920001C9
:100DE000D0920101E0920201F09203018DE891E0BE
:100DF0000E94220260910001709101018091020124
:100E00009091030142E00E94F7028CE191E00E9480
:100E100022021092CC011092CD011092CE011092BC
:100E2000CF0190E080E00E94810220918302309106
:100E3000840281116EC02115310519F0C9010E948B
:100E40006C0C10928402109283021092880210920D
:100E5000870210928602109285021092D0010E94A1
:100E60008901882309F453CE0E94AF0250CE3FEF90
:100E70008316910411F481E054CFE8EEF0E0849100
:100E8000833021F148F48130B9F08230D1F0F0E8BC
:100E9000EF16F10484F744CF873011F1883041F127
:100EA0008430A9F7809180008062809380009092C6
:100EB0008B0080928A0037CF84B5806884BD87BC60
:100EC00032CF84B5806284BD88BC2DCF80918000F4
:100ED000806880938000909289008092880023CF60
:100EE0008091B00080688093B0008092B3001BCFE7
:100EF0008091B00080628093B0008092B40013CFE4
:100F0000C12CD12C76016ACF89EA91E00E9473024C
:100F100088CF10928802109287026EE171E0C901B9
:100F20000E94BB0D9ACF809183029091840200971A
:100F300011F00C946C0C0895662777270C94A00789
:100F4000B0E0A0E0E6EAF7E00C94490A5C017B011E
:100F50006115710519F0DB018D939C9385010F5F7D
:100F60001F4FF501D0818D2F90E00E94F0086C0199
:100F7000892BB9F5DD32B9F50F5F1F4FD5011196F9
:100F8000DC91C1E05801F1E0AF1AB10843E050E054
:100F900060E770E0C5010E94F908892B69F56801D6
:100FA00082E0C80ED11C45E050E06BE670E0C6015F
:100FB0000E94F908892B21F4680197E0C90ED11C21
:100FC000E114F10419F0D701CD92DC9260E070E0F9
:100FD00080E89FEFC111FFC060E070E080E89FE70C
:100FE000FAC05801BBCFDB3229F485010E5F1F4FD9
:100FF000F501D181C0E0C6CF43E050E068E670E083
:10100000C5010E94F908892BE9F0F80110E000E021
:1010100020E030E0A9015F01B0ED8B2E8D0E89E05C
:101020008815C8F19C2E689491F88C2F8870C2FFA7
:1010300016C0811102C00F5F1F4F3196D501DC91A0
:10104000C92DE9CFE114F10429F00E5F1F4FF7011C
:101050001183008360E070E080EC9FE7BCC08823D0
:1010600011F001501109A5E0B0E00E94380A9B017F
:10107000AC01220F331F441F551F280D311D411D88
:10108000511D283999E93907490799E15907A8F20B
:10109000C6609C2ED2CFAEEF8A1206C0C3FD3CC004
:1010A0009C2E689493F8C9CFDF7DD534A9F5808153
:1010B0008D3239F4C061DF011296818162E070E007
:1010C00006C0DF018B32C1F3119661E070E08053FE
:1010D0005D01A61AB70A8A30F8F4E0E8CE16ECE013
:1010E000DE065CF4B601660F771F660F771FC60E2B
:1010F000D71ECC0CDD1CC80ED11C5D01FFEFAF1A52
:10110000BF0A8C9180538A30A8F1C4FF03C0D194E8
:10111000C194D1080C0D1D1DC1FF09C0E114F104DB
:1011200031F081E0A81AB108D701AD92BC92CA0192
:10113000B9010E941609C370C33009F490584B01DD
:101140005C0120E030E0A9010E941109882309F424
:1011500040C0CFE9D0E017FF05C0119501951109F6
:10116000C7E8D0E06E01B8E1CB1AD10880E2E82EE2
:10117000F12C0FC0D501B1CFFE01259135914591DC
:1011800054910E191F09C501B4010E9477094B0142
:101190005C01D501C4010E151F0574F72497F59461
:1011A000E794CC16DD06A9F78A2F880F8B2F881FAE
:1011B0008F3F49F020E030E0A901C501B4010E9451
:1011C0001109811106C082E290E090938A02809317
:1011D0008902C501B401CDB7DEB7ECE00C94650A15
:1011E00091110C94E409803219F089508550C8F7A8
:1011F0000895FB01DC014150504088F08D9181340D
:101200001CF08B350CF4805E659161341CF06B35FD
:101210000CF4605E861B611171F3990B0895881BB5
:10122000FCCF0E94530908F481E00895E89409C0B6
:1012300097FB3EF490958095709561957F4F8F4F09
:101240009F4F9923A9F0F92F96E9BB279395F6951F
:10125000879577956795B795F111F8CFFAF4BB0F9D
:1012600011F460FF1BC06F5F7F4F8F4F9F4F16C001
:10127000882311F096E911C0772321F09EE8872F8B
:10128000762F05C0662371F096E8862F70E060E047
:101290002AF09A95660F771F881FDAF7880F9695C0
:1012A000879597F90895990F0008550FAA0BE0E864
:1012B000FEEF16161706E807F907C0F01216130618
:1012C000E407F50798F0621B730B840B950B39F458
:1012D0000A2661F0232B242B252B21F408950A26BE
:1012E00009F4A140A6958FEF811D811D08950E94EC
:1012F0008A090C94FE090E94F00938F00E94F7094F
:1013000020F0952311F00C94E7090C94ED091124B9
:101310000C94320A0E940F0A70F3959FC1F3950F47
:1013200050E0551F629FF001729FBB27F00DB11D69
:10133000639FAA27F00DB11DAA1F649F6627B00DF9
:10134000A11D661F829F2227B00DA11D621F739FE2
:10135000B00DA11D621F839FA00D611D221F749FF0
:101360003327A00D611D231F849F600D211D822F37
:10137000762F6A2F11249F5750409AF0F1F088235E
:101380004AF0EE0FFF1FBB1F661F771F881F91508B
:101390005040A9F79E3F510580F00C94E7090C944A
:1013A000320A5F3FE4F3983ED4F3869577956795CC
:1013B000B795F795E7959F5FC1F7FE2B880F911DB5
:1013C0009695879597F9089599278827089597F90D
:1013D0009F6780E870E060E008959FEF80EC0895DB
:1013E00000240A9416161706180609060895002404
:1013F0000A9412161306140605060895092E03947E
:10140000000C11F4882352F0BB0F40F4BF2B11F4F1
:1014100060FF04C06F5F7F4F8F4F9F4F089557FD50
:101420009058440F551F59F05F3F71F04795880F52
:1014300097FB991F61F09F3F79F0879508951216E9
:1014400013061406551FF2CF4695F1DF08C0161695
:1014500017061806991FF1CF869571056105089446
:101460000895E894BB2766277727CB0197F908955D
:101470000E947A0AA59F900DB49F900DA49F800DA5
:10148000911D112408952F923F924F925F926F9277
:101490007F928F929F92AF92BF92CF92DF92EF9204
:1014A000FF920F931F93CF93DF93CDB7DEB7CA1B85
:1014B000DB0B0FB6F894DEBF0FBECDBF09942A88B0
:1014C000398848885F846E847D848C849B84AA8458
:1014D000B984C884DF80EE80FD800C811B81AA81E5
:1014E000B981CE0FD11D0FB6F894DEBF0FBECDBFB0
:1014F000ED010895A29FB001B39FC001A39F700D9D
:10150000811D1124911DB29F700D811D1124911D0B
:1015100008955058BB27AA270E94A10A0C94FE09DF
:101520000E94F00938F00E94F70920F039F49F3F3B
:1015300019F426F40C94ED090EF4E095E7FB0C94F5
:10154000E709E92F0E940F0A58F3BA1762077307D9
:101550008407950720F079F4A6F50C94310A0EF46F
:10156000E0950B2EBA2FA02D0B01B90190010C01B3
:10157000CA01A0011124FF27591B99F0593F50F4CB
:10158000503E68F11A16F040A22F232F342F442723
:10159000585FF3CF469537952795A795F04053951B
:1015A000C9F77EF41F16BA0B620B730B840BBAF0EB
:1015B0009150A1F0FF0FBB1F661F771F881FC2F756
:1015C0000EC0BA0F621F731F841F48F4879577956A
:1015D0006795B795F7959E3F08F0B0CF9395880F24
:1015E00008F09927EE0F9795879508950E940A0BAA
:1015F0000C94FE090E94F70958F00E94F00940F08F
:1016000029F45F3F29F00C94E70951110C94320A38
:101610000C94ED090E940F0A68F39923B1F3552346
:1016200091F3951B550BBB27AA27621773078407F5
:1016300038F09F5F5F4F220F331F441FAA1FA9F38B
:1016400035D00E2E3AF0E0E832D091505040E69579
:10165000001CCAF72BD0FE2F29D0660F771F881FDA
:10166000BB1F261737074807AB07B0E809F0BB0BCD
:10167000802DBF01FF2793585F4F3AF09E3F5105E1
:1016800078F00C94E7090C94320A5F3FE4F3983E3B
:10169000D4F3869577956795B795F7959F5FC9F7CA
:1016A000880F911D9695879597F90895E1E0660F4B
:1016B000771F881FBB1F621773078407BA0720F0C4
:1016C000621B730B840BBA0BEE1F88F7E09508952D
:1016D0000E946F0B6894B1110C94320A08950E9415
:1016E000170A88F09F5798F0B92F9927B751B0F093
:1016F000E1F0660F771F881F991F1AF0BA95C9F796
:1017000014C0B13091F00E94310AB1E008950C94F8
:10171000310A672F782F8827B85F39F0B93FCCF3AB
:10172000869577956795B395D9F73EF49095809512
:10173000709561957F4F8F4F9F4F08950E94530979
:1017400008F48FEF08950E945309880B990B0895B0
:10175000A1E21A2EAA1BBB1BFD010DC0AA1FBB1FB5
:10176000EE1FFF1FA217B307E407F50720F0A21B27
:10177000B30BE40BF50B661F771F881F991F1A9494
:1017800069F760957095809590959B01AC01BD01BE
:10179000CF010895EE0FFF1F0590F491E02D0994FD
:1017A0000F931F93CF93DF938230910510F482E063
:1017B00090E0E0918D02F0918E0230E020E0B0E008
:1017C000A0E0309799F42115310509F44AC0281B8F
:1017D000390B24303105D8F58A819B81611571055B
:1017E00089F1FB0193838283FE0111C04081518105
:1017F0000281138148175907E0F04817590799F4F7
:10180000109761F012960C93129713961C933296D0
:10181000CF01DF91CF911F910F91089500938D0219
:1018200010938E02F4CF2115310551F04217530762
:1018300038F0A901DB019A01BD01DF01F801C1CF38
:10184000EF01F9CF90938E0280938D02CDCFFE01F0
:10185000E20FF31F8193919322503109398328833A
:10186000D7CF20918B0230918C02232B41F4209111
:1018700006013091070130938C0220938B02209156
:101880000401309105012115310541F42DB73EB712
:101890004091080150910901241B350BE0918B0206
:1018A000F0918C02E217F307A0F42E1B3F0B2817D0
:1018B000390778F0AC014E5F5F4F2417350748F0C9
:1018C0004E0F5F1F50938C0240938B028193919334
:1018D0009FCFF0E0E0E09CCFCF93DF930097E9F05B
:1018E000FC01329713821282A0918D02B0918E0278
:1018F000ED0130E020E01097A1F420813181820FCA
:10190000931F20918B0230918C022817390709F020
:1019100061C0F0938C02E0938B02DF91CF91089528
:10192000EA01CE17DF07E8F54A815B819E01411588
:101930005105B1F7E901FB83EA8349915991C40F3D
:10194000D51FEC17FD0761F4808191810296840F09
:10195000951FE90199838883828193819B838A8380
:10196000F0E0E0E012968D919C9113970097B9F505
:101970002D913C911197CD010296820F931F2091DA
:101980008B0230918C022817390739F6309751F5C0
:1019900010928E0210928D02B0938C02A0938B0253
:1019A000BCCFD383C28340815181840F951FC81758
:1019B000D90761F44E5F5F4F88819981480F591FA5
:1019C000518340838A819B819383828321153105D2
:1019D00009F0B0CFF0938E02E0938D029ECFFD010F
:1019E000DC01C0CF13821282D7CFB0E0A0E0EBEFD2
:1019F000FCE00C94450A8C01009751F4CB010E9445
:101A0000D00B8C01C801CDB7DEB7E0E10C94610AC0
:101A1000FC01E60FF71F9C0122503109E217F30782
:101A200008F49DC0D901CD91DC911197C617D70755
:101A300098F0C530D10530F3CE010497861797078B
:101A400008F3C61BD70B2297C193D1936D937C9358
:101A5000CF010E946C0CD6CF5B01AC1ABD0A4C01C1
:101A60008C0E9D1EA0918D02B0918E02512C412CA6
:101A7000F12CE12C109731F580918B0290918C0222
:101A80008815990509F05CC04616570608F058C03D
:101A90008091040190910501009741F48DB79EB7A4
:101AA0004091080150910901841B950BE817F90733
:101AB00008F055C0F0938C02E0938B02F90171831A
:101AC0006083A0CF8D919C91119712966C90129784
:101AD00013967C901397A815B90559F56C0142E04F
:101AE000C40ED11CCA14DB0420F1AC014A195B09F5
:101AF000DA011296159780F06282738251834083D7
:101B0000D9016D937C93E114F10471F0D701139620
:101B1000FC93EE93129776CF22968C0F9D1FF901BE
:101B200091838083F301EFCFF0938E02E0938D02D7
:101B300069CF4816590608F42C017D01D3019ACFCC
:101B4000CB010E94D00B7C01009749F0AE01B80197
:101B50000E94B20DC8010E946C0C870153CF10E0A7
:101B600000E050CFFB01DC0102C001900D9241501A
:101B70005040D8F70895FB01DC0101900D92002040
:101B8000E1F7089510E0CBE7D0E004C0FE010E9429
:101B9000CA0B2196CC37D107C9F7F894FFCF33335E
:101BA000733F00008F02800000000000B5011F019C
:101BB0004C0102027D015B016F010D0A006E616E36
:101BC00000696E66006F7666004275636B20436F36
:101BD0006E76657274657220436F6E74726F6C20DE
:101BE000302D3556004D6173756B6B616E206E69DB
:101BF0006C616920746567616E67616E20746172E3
:101C00006765742028302D3556293A005461726773
:101C100065743A2000562C20546572756B75723AC3
:101C20002000562C2050574D3A20005461726765B1
:101C30007420746567616E67616E206469756261A6
:101C400068206B653A20004572726F723A204E69C7
:101C50006C616920686172757320616E7461726174
:061C600020302D35560076
:107E0000112484B714BE81FFF0D085E080938100F7
:107E100082E08093C00088E18093C10086E0809377
:107E2000C20080E18093C4008EE0C9D0259A86E02C
:107E300020E33CEF91E0309385002093840096BBD3
:107E4000B09BFECF1D9AA8958150A9F7CC24DD24C4
:107E500088248394B5E0AB2EA1E19A2EF3E0BF2EE7
:107E6000A2D0813461F49FD0082FAFD0023811F036
:107E7000013811F484E001C083E08DD089C08234E0
:107E800011F484E103C0853419F485E0A6D080C0E4
:107E9000853579F488D0E82EFF2485D0082F10E0AE
:107EA000102F00270E291F29000F111F8ED06801E7
:107EB0006FC0863521F484E090D080E0DECF843638
:107EC00009F040C070D06FD0082F6DD080E0C81688
:107ED00080E7D80618F4F601B7BEE895C0E0D1E017
:107EE00062D089930C17E1F7F0E0CF16F0E7DF06D8
:107EF00018F0F601B7BEE89568D007B600FCFDCFD4
:107F0000A601A0E0B1E02C9130E011968C91119780
:107F100090E0982F8827822B932B1296FA010C0160
:107F200087BEE89511244E5F5F4FF1E0A038BF0790
:107F300051F7F601A7BEE89507B600FCFDCF97BE46
:107F4000E89526C08437B1F42ED02DD0F82E2BD052
:107F50003CD0F601EF2C8F010F5F1F4F84911BD097
:107F6000EA94F801C1F70894C11CD11CFA94CF0C13
:107F7000D11C0EC0853739F428D08EE10CD085E9AC
:107F80000AD08FE07ACF813511F488E018D01DD067
:107F900080E101D065CF982F8091C00085FFFCCF94
:107FA0009093C60008958091C00087FFFCCF809118
:107FB000C00084FD01C0A8958091C6000895E0E648
:107FC000F0E098E1908380830895EDDF803219F02E
:107FD00088E0F5DFFFCF84E1DECF1F93182FE3DFCA
:107FE0001150E9F7F2DF1F91089580E0E8DFEE27F6
:047FF000FF270994CA
:027FFE00040479
:00000001FF
