:100000000C9462000C948A000C948A000C948A0070
:100010000C948A000C948A000C948A000C948A0038
:100020000C948A000C948A000C948A000C948A0028
:100030000C948A000C948A000C948A000C948A0018
:100040000C9447030C948A000C94B7030C9491030E
:100050000C948A000C948A000C948A000C948A00F8
:100060000C948A000C948A000000000024002700F1
:100070002A0000000000250028002B0000000000DE
:1000800023002600290004040404040404040202DA
:100090000202020203030303030301020408102007
:1000A0004080010204081020010204081020000012
:1000B0000008000201000003040700000000000027
:1000C0000000A10511241FBECFEFD8E0DEBFCDBFD9
:1000D00012E0A0E0B1E0E0EFFBE002C005900D927D
:1000E000A03DB107D9F723E0A0EDB2E001C01D9219
:1000F000AA37B207E1F710E0C2E6D0E004C02197CA
:10010000FE010E94F005C136D107C9F70E94E9033C
:100110000C94F6050C940000833081F028F48130B3
:1001200099F08230A9F008958730A9F08830C9F09D
:100130008430B1F4809180008F7D03C08091800075
:100140008F7780938000089584B58F7784BD08955C
:1001500084B58F7DFBCF8091B0008F778093B00006
:1001600008958091B0008F7DF9CFCF93DF93282F32
:1001700030E0F901E255FF4F8491F901E656FF4F57
:10018000D491F901EA57FF4FC491CC23A1F081111A
:100190000E948C00EC2FF0E0EE0FFF1FE458FF4FA1
:1001A000A591B491EC91ED2381E090E009F480E019
:1001B000DF91CF91089580E090E0FACF1F93CF9325
:1001C000DF93282F30E0F901E255FF4F8491F901C8
:1001D000E656FF4FD491F901EA57FF4FC491CC2363
:1001E000A9F0162F81110E948C00EC2FF0E0EE0F89
:1001F000FF1FEE58FF4FA591B4918FB7F894EC9183
:10020000111108C0D095DE23DC938FBFDF91CF9111
:100210001F910895DE2BF8CFCF93DF9390E0FC0180
:10022000E656FF4F24918A579F4FFC018491882303
:10023000D1F090E0880F991FFC01E859FF4FA5917C
:10024000B491FC01EE58FF4FC591D49161110EC0DD
:100250009FB7F8948C91E22FE0958E238C932881A0
:10026000E223E8839FBFDF91CF9108958FB7F89481
:10027000EC91E22BEC938FBFF6CF3FB7F8948091CF
:10028000D9029091DA02A091DB02B091DC0226B58E
:10029000A89B05C02F3F19F00196A11DB11D3FBFBE
:1002A000BA2FA92F982F8827BC01CD01620F711D8D
:1002B000811D911D42E0660F771F881F991F4A9587
:1002C000D1F708958F929F92AF92BF92CF92DF9213
:1002D000EF92FF924B015C010E943D016B017C019A
:1002E0000E943D016C197D098E099F09683E73408B
:1002F00081059105A8F321E0821A9108A108B108AF
:1003000088EEC80E83E0D81EE11CF11C8114910414
:10031000A104B10429F7FF90EF90DF90CF90BF9038
:10032000AF909F908F900895AF92BF92CF92DF923F
:10033000EF92FF920F931F93CF93DF936C017B019A
:100340008B01040F151FEB015E01AE18BF08C0172B
:10035000D10759F06991D601ED91FC910190F0819E
:10036000E02DC6010995892B79F7C501DF91CF9161
:100370001F910F91FF90EF90DF90CF90BF90AF90C3
:100380000895FC01538D448D252F30E0842F90E09B
:10039000821B930B541710F0CF9608950197089580
:1003A000FC01918D828D981761F0A28DAE0FBF2F49
:1003B000B11D5D968C91928D9F5F9F73928F90E09F
:1003C00008958FEF9FEF0895FC01918D828D98170E
:1003D00031F0828DE80FF11D858D90E008958FEF4B
:1003E0009FEF0895FC01918D228D892F90E0805C14
:1003F0009F4F821B91098F73992708958DED92E08D
:100400000E94F20121E0892B09F420E0822F089557
:1004100080E090E0892B29F00E94FE0181110C946C
:1004200000000895FC01A48DA80FB92FB11DA35A97
:10043000BF4F2C91848D90E001968F739927848F04
:10044000A689B7892C93A089B1898C918370806427
:100450008C93938D848D981306C00288F389E02DC8
:1004600080818F7D80830895EF92FF920F931F9379
:10047000CF93DF93EC0181E0888F9B8D8C8D981357
:100480001AC0E889F989808185FF15C09FB7F89463
:10049000EE89FF896083E889F989808183708064AF
:1004A00080839FBF81E090E0DF91CF911F910F91FA
:1004B000FF90EF900895F62E0B8D10E00F5F1F4F09
:1004C0000F731127E02E8C8D8E110CC00FB607FC18
:1004D000FACFE889F989808185FFF5CFCE010E94A6
:1004E0001202F1CFEB8DEC0FFD2FF11DE35AFF4F00
:1004F000F0829FB7F8940B8FEA89FB898081806234
:10050000CFCFCF93DF93EC01888D8823B9F0AA89F0
:10051000BB89E889F9898C9185FD03C0808186FDBE
:100520000DC00FB607FCF7CF8C9185FFF2CF80810D
:1005300085FFEDCFCE010E941202E9CFDF91CF916E
:10054000089560E086E00E94DE0060E087E00C94A1
:10055000DE0060E088E00E94DE0060E089E00C944C
:10056000DE00FC0101900020E9F73197AF01481B44
:10057000590BBC018DED92E00C949401CF93DF9365
:100580000E94B102EC0182E191E00E94B1028C0F65
:100590009D1FDF91CF9108958F929F92AF92BF924E
:1005A000CF92DF92EF92FF920F931F93CF93DF933F
:1005B000CDB7DEB7A1970FB6F894DEBF0FBECDBFA3
:1005C0006B017C01F7FE41C06DE28DED92E00E946F
:1005D00034028C0122273327A9012C193D094E0929
:1005E0005F0919A2CE0181967C019AE0892E912C97
:1005F000A12CB12CCA01B901A50194010E94CE051C
:10060000605DF70162937F012115310541055105B8
:1006100089F790E080E0309719F0CF010E94B10295
:10062000800F911FA1960FB6F894DEBF0FBECDBF0D
:10063000DF91CF911F910F91FF90EF90DF90CF90BE
:10064000BF90AF909F908F900895AC019B0119A22D
:100650008E010F5D1F4F8AE0C82ED12CE12CF12CAA
:10066000CA01B901A70196010E94CE05605DF8019B
:1006700062938F01211531054105510589F790E0FD
:1006800080E0309779F2CF010E94B102CBCF1F9268
:100690000F920FB60F9211242F933F938F939F9336
:1006A000AF93BF938091D5029091D602A091D702CB
:1006B000B091D8023091D40223E0230F2D3758F5A2
:1006C0000196A11DB11D2093D4028093D502909371
:1006D000D602A093D702B093D8028091D90290910C
:1006E000DA02A091DB02B091DC020196A11DB11DDE
:1006F0008093D9029093DA02A093DB02B093DC02DC
:10070000BF91AF919F918F913F912F910F900FBE0D
:100710000F901F90189526E8230F0296A11DB11D7A
:10072000D2CF1F920F920FB60F9211242F933F93A7
:100730004F935F936F937F938F939F93AF93BF93E9
:10074000EF93FF938DED92E00E941202FF91EF91E3
:10075000BF91AF919F918F917F916F915F914F91D9
:100760003F912F910F900FBE0F901F9018951F92E1
:100770000F920FB60F9211242F938F939F93EF93A5
:10078000FF93E091ED02F091EE028081E091F3029F
:10079000F091F40282FD1BC090818091F6028F5F80
:1007A0008F732091F702821741F0E091F602F0E09A
:1007B000E352FD4F958F8093F602FF91EF919F9149
:1007C0008F912F910F900FBE0F901F9018958081E1
:1007D000F4CF789484B5826084BD84B5816084BD93
:1007E00085B5826085BD85B5816085BD80916E00CF
:1007F000816080936E001092810080918100826000
:10080000809381008091810081608093810080913C
:1008100080008160809380008091B100846080932B
:10082000B1008091B00081608093B00080917A0027
:10083000846080937A0080917A00826080937A004D
:1008400080917A00816080937A0080917A0080683C
:1008500080937A001092C100E091ED02F091EE02D7
:1008600082E08083E091E902F091EA021082E09157
:10087000EB02F091EC028FEC80831092F502E09194
:10088000F102F091F20286E08083E091EF02F091B4
:10089000F002808180618083E091EF02F091F002AC
:1008A000808188608083E091EF02F091F002808186
:1008B00080688083E091EF02F091F00280818F7D6B
:1008C000808360E082E00E940C0160E083E00E948F
:1008D0000C0160E084E00E940C0160E085E00E9471
:1008E0000C0161E088E00E940C0161E089E00E9457
:1008F0000C0161E086E00E940C0161E087E00E944B
:100900000C0160E088E00E94DE0060E089E00E9467
:10091000DE0060E086E00E94DE0060E087E00E948A
:10092000DE0085E191E00E94BE028EE391E00E942C
:10093000BE0280E0A82E80E0B82E2FB7F8948091F8
:10094000D5029091D602A091D702B091D8022FBFC4
:100950004091D0025091D1026091D2027091D302A5
:100960008C019D01041B150B260B370BB901A80147
:10097000483E53406105710508F46BC08093D00276
:100980009093D102A093D202B093D30282E00E944E
:10099000B5006C0183E00E94B5008C0184E00E94E8
:1009A000B5007C0185E00E94B500EC0184E791E090
:1009B0000E94B102B6010D2C000C880B990B0E940D
:1009C000CC0288E891E00E94B102B801012E000C2F
:1009D000880B990B0E94CC0282E991E00E94B1023F
:1009E000B7010F2C000C880B990B0E94CC0287EAF0
:1009F00091E00E94B102BE010D2E000C880B990BF4
:100A00000E94CC0282E191E00E94B10221E0C21674
:100A1000D10409F03FC00130110539F50E94A90247
:100A200081EB91E00E94BE0260ED77E080E090E013
:100A30000E94620131E0E316F10409F061C0C130A7
:100A4000D10509F047C00E94A10284E492E00E940F
:100A5000BE02A114B10409F470CF0E94FE018823E4
:100A600009F46BCF0E94000068CF012BE9F660E02B
:100A700088E00E94DE0061E089E00E94DE0068EE0E
:100A800073E080E090E00E9462010E94A90280EE83
:100A900091E0C8CFCD2841F60130110599F461E00D
:100AA00088E00E94DE0060E089E00E94DE0068EEDF
:100AB00073E080E090E00E9462010E94A9028EEF44
:100AC00091E0B0CF012B09F0AFCF0E94A9028BE1DA
:100AD00092E0A8CFCD2B09F0BCCF60E086E00E9469
:100AE000DE0061E087E00E94DE0068EE73E080E0F7
:100AF00090E00E9462010E94A10281E792E0A7CFEC
:100B0000EF2809F0A6CFC130D10599F461E086E065
:100B10000E94DE0060E087E00E94DE0068EE73E085
:100B200080E090E00E9462010E94A1028DE892E0C4
:100B30008ECFCD2B09F08DCF0E94A10288EA92E0E2
:100B400086CFEDEDF2E01382128288EE93E0A0E012
:100B5000B0E084839583A683B78384E091E091839A
:100B6000808385EC90E09587848784EC90E097877C
:100B7000868780EC90E0918B808B81EC90E0938B6A
:100B8000828B82EC90E0958B848B86EC90E0978B47
:100B9000868B118E128E138E148E0895A1E21A2E5A
:100BA000AA1BBB1BFD010DC0AA1FBB1FEE1FFF1F11
:100BB000A217B307E407F50720F0A21BB30BE40B61
:100BC000F50B661F771F881F991F1A9469F76095A8
:100BD0007095809590959B01AC01BD01CF01089562
:100BE000EE0FFF1F0590F491E02D0994F894FFCFCC
:100BF0000000000034029401C1018102F201D00121
:100C0000E4010D0A00536F6C617220547261636BD2
:100C10006572204475616C20417869732073696145
:100C200070206265726F70657261736921004D6F2B
:100C300064653A204C3239384E2074616E70612000
:100C400050574D2028454E412064616E20454E424C
:100C500020746572687562756E67206B65204849FF
:100C600047482900486F72697A6F6E74616C202D55
:100C7000204B6972693A20002C204B616E616E3AFC
:100C80002000207C2056657274696B616C202D20D9
:100C9000417461733A20002C2042617761683A20E8
:100CA00000486F72697A6F6E74616C3A204B6564AC
:100CB00075612073656E736F722067656C61702C4F
:100CC000206D6F746F722062657268656E74690062
:100CD000486F72697A6F6E74616C3A204265726710
:100CE0006572616B206B65206B616E616E00486F91
:100CF00072697A6F6E74616C3A20426572676572D0
:100D0000616B206B65206B69726900486F72697A4C
:100D10006F6E74616C3A20506F73697369206964F7
:100D200065616C2C206D6F746F72206265726865EE
:100D30006E74690056657274696B616C3A204B651C
:100D40006475612073656E736F722067656C617086
:100D50002C206D6F746F722062657268656E7469A5
:100D60000056657274696B616C3A20426572676502
:100D700072616B206B6520626177616800566572F5
:100D800074696B616C3A20426572676572616B20B1
:100D90006B6520617461730056657274696B616C78
:100DA0003A20506F7369736920696465616C2C2007
:100DB0006D6F746F722062657268656E7469000091
:00000001FF
