:020000040000FA
:100000000C9462000C948A000C948A000C948A0070
:100010000C948A000C948A000C948A000C948A0038
:100020000C948A000C948A000C948A000C948A0028
:100030000C948A000C948A000C948A000C948A0018
:100040000C9426040C948A000C9496040C9470046E
:100050000C948A000C948A000C948A000C948A00F8
:100060000C948A000C948A000000000023002600F3
:10007000290000000000240027002A0000000000E2
:10008000250028002B0004040404040404040202D4
:100090000202020203030303030301020408102007
:1000A0004080010204081020010204081020000012
:1000B0000008000201000003040700000000000027
:1000C0000000E50911241FBECFEFD8E0DEBFCDBF91
:1000D00024E0A6E7B3E001C01D92A833B207E1F720
:1000E00013E0A0E0B1E0EAEDFDE102C005900D9261
:1000F000A637B107D9F710E0C2E6D0E004C02197D7
:10010000FE010E94E50CC136D107C9F70E94C80460
:100110000C94EB0E0C940000833081F028F48130B5
:1001200099F08230A9F008958730A9F08830C9F09D
:100130008430B1F4809180008F7D03C08091800075
:100140008F7780938000089584B58F7784BD08955C
:1001500084B58F7DFBCF8091B0008F778093B00006
:1001600008958091B0008F7DF9CF1F93CF93DF93D7
:10017000282F30E0F901E255FF4F8491F901E6564E
:10018000FF4FD491F901EA57FF4FC491CC23A9F056
:10019000162F81110E948C00EC2FF0E0EE0FFF1F54
:1001A000E458FF4FA591B4918FB7F894EC911111D9
:1001B00008C0D095DE23DC938FBFDF91CF911F91D4
:1001C0000895DE2BF8CFCF93DF9390E0FC01E65645
:1001D000FF4F24918A579F4FFC0184918823D1F0CF
:1001E00090E0880F991FFC01EE58FF4FA591B49144
:1001F000FC01E458FF4FC591D49161110EC09FB727
:10020000F8948C91E22FE0958E238C932881E22341
:10021000E8839FBFDF91CF9108958FB7F894EC9159
:10022000E22BEC938FBFF6CFCF93DF93EC0161E02D
:1002300089E00E94E300209731F460E089E0DF91DB
:10024000CF910C94B500CF3FD10511F461E0F6CF0A
:10025000E7EBF0E0E491E33029F140F4E130B1F074
:10026000E230D9F0C038D1058CF7E7CFE73021F183
:10027000E83051F1E430B1F78091800080628093E2
:100280008000D0938B00C0938A0004C084B580683E
:1002900084BDC7BDDF91CF91089584B5806284BDD0
:1002A000C8BDF8CF80918000806880938000D09393
:1002B0008900C0938800EECF8091B0008068809361
:1002C000B000C093B300E6CF8091B000806280930D
:1002D000B000C093B400DECF3FB7F8948091930391
:1002E00090919403A0919503B091960326B5A89B95
:1002F00005C02F3F19F00196A11DB11D3FBFBA2FB8
:10030000A92F982F8827BC01CD01620F711D811D77
:10031000911D42E0660F771F881F991F4A95D1F7FC
:1003200008958F929F92AF92BF92CF92DF92EF92F9
:10033000FF920E946C014B015C0188ECC82ED12C0D
:10034000E12CF12C0E946C01681979098A099B093A
:10035000683E734081059105A8F321E0C21AD108D7
:10036000E108F10888EE880E83E0981EA11CB11CFC
:10037000C114D104E104F10429F7FF90EF90DF905C
:10038000CF90BF90AF909F908F9008952FB7F89423
:1003900060918F03709190038091910390919203EB
:1003A0002FBF0895AF92BF92CF92DF92EF92FF924C
:1003B0000F931F93CF93DF936C017B018B01040F8D
:1003C000151FEB015E01AE18BF08C017D10759F029
:1003D0006991D601ED91FC910190F081E02DC6016B
:1003E0000995892B79F7C501DF91CF911F910F9165
:1003F000FF90EF90DF90CF90BF90AF900895FC01F9
:10040000538D448D252F30E0842F90E0821B930B79
:10041000541710F0CF96089501970895FC01918D1F
:10042000828D981761F0A28DAE0FBF2FB11D5D9622
:100430008C91928D9F5F9F73928F90E008958FEFC4
:100440009FEF08950F931F930E94C60160939F032F
:100450007093A0038093A1039093A20387E993E094
:100460000E940E0297FF1DC00E94C60100919F03CB
:100470001091A0032091A1033091A203601B710B86
:10048000820B930B00919B0310919C0320919D0381
:1004900030919E036017710782079307F8F28FEF80
:1004A0009FEF1F910F910895FC01918D828D9817F8
:1004B00031F0828DE80FF11D858D90E008958FEF6A
:1004C0009FEF0895FC01918D228D892F90E0805C33
:1004D0009F4F821B91098F739927089587E993E0B5
:1004E0000E94620221E0892B09F420E0822F089506
:1004F00080E090E0892B29F00E946E0281110C941B
:1005000000000895FC01A48DA80FB92FB11DA35AB6
:10051000BF4F2C91848D90E001968F739927848F23
:10052000A689B7892C93A089B1898C918370806446
:100530008C93938D848D981306C00288F389E02DE7
:1005400080818F7D80830895EF92FF920F931F9398
:10055000CF93DF93EC0181E0888F9B8D8C8D981376
:100560001AC0E889F989808185FF15C09FB7F89482
:10057000EE89FF896083E889F989808183708064CE
:1005800080839FBF81E090E0DF91CF911F910F9119
:10059000FF90EF900895F62E0B8D10E00F5F1F4F28
:1005A0000F731127E02E8C8D8E110CC00FB607FC37
:1005B000FACFE889F989808185FFF5CFCE010E94C5
:1005C0008202F1CFEB8DEC0FFD2FF11DE35AFF4FAF
:1005D000F0829FB7F8940B8FEA89FB898081806253
:1005E000CFCFCF93DF93EC01888D8823B9F0AA8910
:1005F000BB89E889F9898C9185FD03C0808186FDDE
:100600000DC00FB607FCF7CF8C9185FFF2CF80812C
:1006100085FFEDCFCE010E948202E9CFDF91CF911D
:100620000895FC0101900020E9F73197AF01481BC4
:10063000590BBC0187E993E00C94D201CF93DF936F
:100640000E941103EC0188E191E00E9411038C0FDC
:100650009D1FDF91CF9108950C9411038F929F926B
:10066000AF92BF92CF92DF92EF92FF920F931F93C0
:10067000CF93DF93CDB7DEB7A1970FB6F894DEBF67
:100680000FBECDBF6C01990FEE08FF08F7FE41C009
:100690006DE287E993E00E94A4028C0122273327B0
:1006A000A9012C193D094E095F0919A2CE018196B5
:1006B0007C019AE0892E912CA12CB12CCA01B901A0
:1006C000A50194010E94C30C605DF70162937F0154
:1006D000211531054105510589F790E080E03097FB
:1006E00019F0CF010E941103800F911FA1960FB640
:1006F000F894DEBF0FBECDBFDF91CF911F910F9158
:10070000FF90EF90DF90CF90BF90AF909F908F9031
:100710000895A701960119A28E010F5D1F4F8AE06F
:10072000C82ED12CE12CF12CCA01B901A7019601E8
:100730000E94C30C605DF80162938F0121153105A1
:100740004105510589F790E080E0309779F2CF01BB
:100750000E941103CBCFCF93DF930E942E03EC01B5
:1007600088E191E00E9411038C0F9D1FDF91CF91D2
:1007700008950F931F93CF93DF93EC0188819981A4
:10078000009759F02A813B812617370730F081E026
:10079000DF91CF911F910F9108958B016F5F7F4F74
:1007A0000E94100E009759F0998388831B830A8357
:1007B0002C813D81232B59F7FC011082E8CF80E08A
:1007C000E7CFCF93DF93EC0188819981009711F0F7
:1007D0000E94870D198218821D821C821B821A8238
:1007E000DF91CF910895EF92FF920F931F93CF93D4
:1007F000DF938C017B01EB0109900020E9F7219741
:10080000C61BD70BBE010E94B903811109C0C801E4
:10081000DF91CF911F910F91FF90EF900C94E10326
:10082000F801D583C483B70180819181DF91CF9195
:100830001F910F91FF90EF900C94D60EFC018081D8
:100840009181009711F00C94870D08951F920F92DB
:100850000FB60F9211242F933F938F939F93AF93D3
:10086000BF9380918F0390919003A0919103B091D9
:10087000920330918E0323E0230F2D3758F5019614
:10088000A11DB11D20938E0380938F03909390033D
:10089000A0939103B093920380919303909194035A
:1008A000A0919503B09196030196A11DB11D80936F
:1008B000930390939403A0939503B0939603BF91F1
:1008C000AF919F918F913F912F910F900FBE0F90FD
:1008D0001F90189526E8230F0296A11DB11DD2CFB7
:1008E0001F920F920FB60F9211242F933F934F93A5
:1008F0005F936F937F938F939F93AF93BF93EF9388
:10090000FF9387E993E00E948202FF91EF91BF91EC
:10091000AF919F918F917F916F915F914F913F9197
:100920002F910F900FBE0F901F9018951F920F924E
:100930000FB60F9211242F938F939F93EF93FF93F2
:10094000E091A703F091A8038081E091AD03F091BD
:10095000AE0382FD1BC090818091B0038F5F8F73C7
:100960002091B103821741F0E091B003F0E0E95625
:10097000FC4F958F8093B003FF91EF919F918F91E2
:100980002F910F900FBE0F901F9018958081F4CF7C
:10099000CF93DF93CDB7DEB767970FB6F894DEBF7E
:1009A0000FBECDBF789484B5826084BD84B581606C
:1009B00084BD85B5826085BD85B5816085BD80912A
:1009C0006E00816080936E001092810080918100A2
:1009D000826080938100809181008160809381009A
:1009E000809180008160809380008091B10084605C
:1009F0008093B1008091B00081608093B0008091BD
:100A00007A00846080937A0080917A00826080937B
:100A10007A0080917A00816080937A0080917A00D8
:100A2000806880937A001092C100E091A703F09152
:100A3000A80382E08083E091A303F091A4031082D5
:100A4000E091A503F091A6038FEC80831092AF0391
:100A5000E091AB03F091AC0386E08083E091A903C1
:100A6000F091AA03808180618083E091A903F091D5
:100A7000AA03808188608083E091A903F091AA0392
:100A8000808180688083E091A903F091AA0380812E
:100A90008F7D80838BE191E00E941E0360E08EE0F9
:100AA0000E94E30061E089E00E94E30061E08DE0E4
:100AB0000E94E30090E080E00E94140161E08DE07C
:100AC0000E94B5000E94910160E08DE00E94B50097
:100AD0000E94910161E08DE00E94B5000E949101A9
:100AE00060E08DE00E94B50086E491E00E941E0364
:100AF0008CE791E00E941E0382EA91E00E941E03AF
:100B00008DEB91E00E941E0385ED91E00E941E0393
:100B100086EE91E00E941E0381E192E00E941E0396
:100B200089E492E00E941E0380E480937C0080911F
:100B30007A00806480937A0080917A00282F207454
:100B40002B8B86FDF9CF809178009091790021E080
:100B5000853F31E093070CF420E0853F91406CF035
:100B600080918D03811109C080918B0390918C033A
:100B7000019690938C0380938B0320938D030E94A6
:100B8000C601009187031091880320918903309159
:100B90008A03601B710B820B930B63337105810514
:100BA000910568F10E94C6016093870370938803E2
:100BB0008093890390938A0320918B0330918C0357
:100BC000E0EBF4E02E9FC0012F9F900D3E9F900D13
:100BD0001124909386038093850310928C031092C6
:100BE0008B0384E692E00E942C0380918503909110
:100BF00086030E942E0388E692E00E941E038091E5
:100C00008403882309F476C1009182031091830341
:100C1000101611060CF06EC10E94C601C0907E0332
:100C2000D0907F03E0908003F09081036C197D09E0
:100C30008E099F09653671058105910508F45AC131
:100C40000E94C60160937E0370937F0380938003AC
:100C50009093810380917C0390917D032091850383
:100C600030918603A801421B530B5A8B498B50933A
:100C70007D0340937C035A0157FF03C0B194A194B4
:100C8000B10809891A89081B190B17FF03C01195B0
:100C90000195110955E6A516B1040CF463C38DE264
:100CA000A81681E0B8060CF07FC36CE271E06A1907
:100CB0007B09072E000C880B990B0E94550A20E037
:100CC00030E048E453E40E94160C6D877E878F87DE
:100CD000988BB50164567109072E000C880B990B8F
:100CE0000E94550A20E030E048E453E40E94160CCC
:100CF000C62EF72EE82ED92E812C912C54010333C9
:100D000011050CF471C1073911050CF03DC366E9FA
:100D100070E0601B710B072E000C880B990B0E9472
:100D2000550A20E030E048EC52E40E94160C1B010A
:100D30008C01412C512C32019101A8016D857E85D9
:100D40008F8598890E944E0A87FD04C02D863E86B5
:100D50000F87188B2C2D3F2D4E2D5D2DB101C80115
:100D60000E94BE0C181624F0C22CF32CE02ED12EBB
:100D700020E030E040E450E46C2D7F2D8E2D9D2D41
:100D80000E94B40A2D853E854F8558890E94AA0B82
:100D90006C8B7D8B8E8B9F8B20E030E040EA50E4A3
:100DA000C501B4010E94B40A9B01AC016C897D8924
:100DB0008E899F890E94AA0B6C8B7D8B8E8B9F8B5B
:100DC0002C2D3F2D4E2D5D2D6D857E858F8598892F
:100DD0000E94AA0BA50194010E94AA0B2FE632E102
:100DE00043E85AE30E94AA0B9B01AC016C897D8900
:100DF0008E899F890E94160C6B017C0120E030E0F7
:100E000040E05FE3C301B2010E94B40A9B01AC0160
:100E100060E070E080E89FE30E94A90BA7019601C3
:100E20000E94B40A6B017C0120E030E0A9010E941D
:100E3000BE0C20E030E040E05FE387FDF8C0C70172
:100E4000B6010E94AA0B0E94880C8B0129893A895D
:100E500037FF03C011950195110901151105D9F04E
:100E600020917A0330917B03C901800F911F8F3F3E
:100E7000910519F014F08FEF90E08233910514F48E
:100E800082E390E02817390731F090937B03809339
:100E90007A030E94140184EB92E00E942C0380915B
:100EA0008203909183030E942E038BE692E00E94BE
:100EB0002C0380918503909186030E942E038BE77B
:100EC00092E00E942C0380917C0390917D030E940C
:100ED0002E0389E892E00E942C03C8010E942E0391
:100EE00084E992E00E942C0380917A0390917B0325
:100EF0000E94AB0387E993E00E946202181619066C
:100F00000CF058C118861F821A8619861C861B860B
:100F10006AE171E0CE0107960E94F3030E9422026B
:100F200097FD8AC08A30910509F486C089831A82A8
:100F30000B851C850F5F1F4FB801CE0107960E94DD
:100F4000B903882359F32F8138858B859C85BE0191
:100F50006F5F7F4F820F931F0E94D60E1C870B87F7
:100F6000DDCF6CEB72E06A197B09072E000C880B51
:100F7000990B0E94550A20E030E048EC53E40E94AF
:100F8000160CC62EF72EE82ED92EB5016C527140E4
:100F9000072E000C880B990B0E94550A20E030E0C8
:100FA00048EC53E40E94160C4B015C01033311051D
:100FB00014F11D861E861F86188AA5CEB8016659B3
:100FC0007109072E000C880B990B0E94550A20E02E
:100FD00030E046E153E40E94160C2B013C01212C29
:100FE000312C00E010E0A8CE212C312C00E81FE3CA
:100FF00024013501A1CE212C312C00E81FE3412C26
:10100000512C32011D861E861F86188AA3CE412CC4
:10101000512C32011D861E8690E89F87EFE3E88BF6
:1010200053014201C12CF12CE12CD12CA1CEC701DE
:10103000B6010E94A90B07CF1A8219821C821B825B
:101040001E821D8264EE71E0CE0101960E94F303C0
:101050004D815E818B859C858417950780F08F81FB
:101060009885009761F069817A816115710539F081
:101070000E94DD0E31E03B8B892B09F01B8ACE01EB
:1010800001960E941E044B89442309F4E2C0CB84DC
:10109000DC84EE24E394F12CC114D10429F4F12C66
:1010A000E12CCC24C394D12C1A8219821C821B827D
:1010B0001E821D826AE171E0CE0101960E94F30357
:1010C0000B851C85E016F10650F5C016D10608F414
:1010D0008601EF81F885E00FF11FB08010828F81CB
:1010E0009885E80EF91EE114F10479F0F7010190FA
:1010F0000020E9F731976F01CE18DF08B601CE0165
:1011000001960E94B90381113FC0CE0101960E9451
:10111000E1038F819885080F191FF801B08289813A
:101120009A810097C9F10E94120A8B017093830380
:1011300060938203CE0101960E941E0410161106D0
:101140007CF581E08093840310927D0310927C03F0
:101150008CE992E00E942C0380918203909183039A
:101160000E94AB0380917A0390917B0318161906B5
:10117000ECF022E330E030937B0320937A0382E3A8
:1011800090E00E94140112C0DE82CD82B7018981F5
:101190009A810E94D60EBDCF60E070E0CB01C5CF32
:1011A000109284038DEB92E00E941E03CE010796FD
:1011B0000E941E040E94C6010091760310917703DD
:1011C0002091780330917903601B710B820B930B94
:1011D000693E73408105910578F1EBEBF0E0849175
:1011E000E7EAF0E01491E3E9F0E0049170E060E0F8
:1011F000002399F081110E948C00E02FF0E0EE0FA7
:10120000FF1FE859FF4FA591B491EC911E2391E087
:1012100080E009F490E0692F782FF1E06F278DE0EE
:101220000E94B5000E94C601609376037093770315
:10123000809378039093790380E090E0892B09F400
:1012400073CC0E946E02882309F46ECC0E940000C9
:101250006BCC8B859C85019709F0A8CFEF81F88531
:10126000309739F41092840380917A0390917B0334
:1012700088CF8081803709F449C0109284038D3271
:1012800099F18CF48B3281F780917A0390917B03F2
:101290008F3F910524F5059690937B0380937A0305
:1012A0008CEE92E013C0833749F08837E9F610924C
:1012B0007B0310927A038DE293E013C042E350E087
:1012C00050937B0340937A0389ED92E00E942C03B4
:1012D00080917A0390917B030E94AB03C5CF84EF8A
:1012E00092E00E941E03C0CF80917A0390917B030D
:1012F0008333910544F0059790937B0380937A03A1
:101300008DE093E0E3CF85E193E0EBCF84E493E0DD
:101310000E942C0380917A0390917B030E94AB037F
:1013200089E593E00E942C038091850390918603C8
:101330000E94AB0380918403882309F495CF88E64B
:1013400093E00E942C0380918203909183030E947A
:101350002E038FE792E00E942C0380917C039091F2
:101360007D03BACF033311050CF451CE1D861E86C2
:1013700020E82F873FE3388B812C912C5401C12C1E
:10138000F12CE12CD12CBFCC0D3241E014070CF430
:1013900015CE212C312C00E010E0412C512C90E88E
:1013A000692E9FE3792EC8CC5DEBA51652E0B506F9
:1013B0000CF4D7CDC12CF12CE12CD12C812C912C0B
:1013C00080E8A82E8FE3B82EF1CDE7E9F3E0138291
:1013D000128288EE93E0A0E0B0E084839583A68338
:1013E000B7838AE091E09183808385EC90E09587D4
:1013F000848784EC90E09787868780EC90E0918BDF
:10140000808B81EC90E0938B828B82EC90E0958BCB
:10141000848B86EC90E0978B868B118E128E138EC8
:10142000148E08951F93FC0199278827BC01E89426
:1014300011911032E9F3193010F01E30C8F31B324D
:1014400051F01D3249F4689406C00E94390A610FB8
:10145000711D811D911D119110531A30B0F33EF48E
:1014600090958095709561957F4F8F4F9F4F1F91FD
:101470000895592F482F372F262F660F771F881F63
:10148000991F660F771F881F991F620F731F841F94
:10149000951F660F771F881F991F08950E94900A55
:1014A00008F481E00895E89409C097FB3EF4909514
:1014B0008095709561957F4F8F4F9F4F9923A9F02D
:1014C000F92F96E9BB279395F695879577956795BC
:1014D000B795F111F8CFFAF4BB0F11F460FF1BC000
:1014E0006F5F7F4F8F4F9F4F16C0882311F096E993
:1014F00011C0772321F09EE8872F762F05C0662341
:1015000071F096E8862F70E060E02AF09A95660FF9
:10151000771F881FDAF7880F9695879597F90895B2
:10152000990F0008550FAA0BE0E8FEEF16161706F4
:10153000E807F907C0F012161306E407F50798F05C
:10154000621B730B840B950B39F40A2661F0232B75
:10155000242B252B21F408950A2609F4A140A695F1
:101560008FEF811D811D08950E94C70A0C94380BCE
:101570000E942A0B38F00E94310B20F0952311F0C5
:101580000C94210B0C94270B11240C946C0B0E94CF
:10159000490B70F3959FC1F3950F50E0551F629F63
:1015A000F001729FBB27F00DB11D639FAA27F00DBC
:1015B000B11DAA1F649F6627B00DA11D661F829FE3
:1015C0002227B00DA11D621F739FB00DA11D621FC8
:1015D000839FA00D611D221F749F3327A00D611DE5
:1015E000231F849F600D211D822F762F6A2F1124C7
:1015F0009F5750409AF0F1F088234AF0EE0FFF1FFA
:10160000BB1F661F771F881F91505040A9F79E3F50
:10161000510580F00C94210B0C946C0B5F3FE4F3AC
:10162000983ED4F3869577956795B795F795E795A6
:101630009F5FC1F7FE2B880F911D9695879597F9AF
:10164000089597F99F6780E870E060E008959FEF44
:1016500080EC089500240A94161617061806090649
:10166000089500240A941216130614060506089518
:10167000092E0394000C11F4882352F0BB0F40F4A0
:10168000BF2B11F460FF04C06F5F7F4F8F4F9F4FE0
:10169000089557FD9058440F551F59F05F3F71F062
:1016A0004795880F97FB991F61F09F3F79F08795C9
:1016B0000895121613061406551FF2CF4695F1DF52
:1016C00008C0161617061806991FF1CF86957105E2
:1016D000610508940895E894BB2766277727CB0116
:1016E00097F908952F923F924F925F926F927F9257
:1016F0008F929F92AF92BF92CF92DF92EF92FF9222
:101700000F931F93CF93DF93CDB7DEB7CA1BDB0BCD
:101710000FB6F894DEBF0FBECDBF09942A88398872
:1017200048885F846E847D848C849B84AA84B98479
:10173000C884DF80EE80FD800C811B81AA81B98185
:10174000CE0FD11D0FB6F894DEBF0FBECDBFED0199
:1017500008955058BB27AA270E94C10B0C94380B40
:101760000E942A0B38F00E94310B20F039F49F3F81
:1017700019F426F40C94270B0EF4E095E7FB0C9477
:10178000210BE92F0E94490B58F3BA176207730720
:101790008407950720F079F4A6F50C946B0B0EF4F2
:1017A000E0950B2EBA2FA02D0B01B90190010C0171
:1017B000CA01A0011124FF27591B99F0593F50F489
:1017C000503E68F11A16F040A22F232F342F4427E1
:1017D000585FF3CF469537952795A795F0405395D9
:1017E000C9F77EF41F16BA0B620B730B840BBAF0A9
:1017F0009150A1F0FF0FBB1F661F771F881FC2F714
:101800000EC0BA0F621F731F841F48F48795779527
:101810006795B795F7959E3F08F0B0CF9395880FE1
:1018200008F09927EE0F9795879508950E942A0C46
:101830000C94380B0E94310B58F00E942A0B40F098
:1018400029F45F3F29F00C94210B51110C946C0B7F
:101850000C94270B0E94490B68F39923B1F355238D
:1018600091F3951B550BBB27AA27621773078407B3
:1018700038F09F5F5F4F220F331F441FAA1FA9F349
:1018800035D00E2E3AF0E0E832D091505040E69537
:10189000001CCAF72BD0FE2F29D0660F771F881F98
:1018A000BB1F261737074807AB07B0E809F0BB0B8B
:1018B000802DBF01FF2793585F4F3AF09E3F51059F
:1018C00078F00C94210B0C946C0B5F3FE4F3983E82
:1018D000D4F3869577956795B795F7959F5FC9F788
:1018E000880F911D9695879597F90895E1E0660F09
:1018F000771F881FBB1F621773078407BA0720F082
:10190000621B730B840BBA0BEE1F88F7E0950895EA
:101910000E948F0C6894B1110C946C0B08950E9476
:10192000510B88F09F5798F0B92F9927B751B0F015
:10193000E1F0660F771F881F991F1AF0BA95C9F753
:1019400014C0B13091F00E946B0BB1E008950C947B
:101950006B0B672F782F8827B85F39F0B93FCCF32E
:10196000869577956795B395D9F73EF490958095D0
:10197000709561957F4F8F4F9F4F08950E94900AF9
:1019800008F48FEF0895A1E21A2EAA1BBB1BFD01DC
:101990000DC0AA1FBB1FEE1FFF1FA217B307E4074E
:1019A000F50720F0A21BB30BE40BF50B661F771FA6
:1019B000881F991F1A9469F7609570958095909586
:1019C0009B01AC01BD01CF010895EE0FFF1F0590F3
:1019D000F491E02D09940F931F93CF93DF938230FE
:1019E000910510F482E090E0E0913604F091370424
:1019F00030E020E0B0E0A0E0309799F42115310507
:101A000009F44AC0281B390B24303105D8F58A81E6
:101A10009B816115710589F1FB0193838283FE012E
:101A200011C0408151810281138148175907E0F0AC
:101A30004817590799F4109761F012960C93129772
:101A400013961C933296CF01DF91CF911F910F9186
:101A500008950093360410933704F4CF211531050F
:101A600051F04217530738F0A901DB019A01BD017B
:101A7000DF01F801C1CFEF01F9CF909337048093D4
:101A80003604CDCFFE01E20FF31F819391932250D4
:101A9000310939832883D7CF20913404309135041C
:101AA000232B41F42091020130910301309335043E
:101AB000209334042091000130910101211531055A
:101AC00041F42DB73EB74091040150910501241B0C
:101AD000350BE0913404F0913504E217F307A0F4DC
:101AE0002E1B3F0B2817390778F0AC014E5F5F4F74
:101AF0002417350748F04E0F5F1F5093350440936D
:101B00003404819391939FCFF0E0E0E09CCFCF939A
:101B1000DF930097E9F0FC01329713821282A091C3
:101B20003604B0913704ED0130E020E01097A1F4C5
:101B300020813181820F931F20913404309135042C
:101B40002817390709F061C0F0933504E093340495
:101B5000DF91CF910895EA01CE17DF07E8F54A81BA
:101B60005B819E0141155105B1F7E901FB83EA83D1
:101B700049915991C40FD51FEC17FD0761F480817D
:101B800091810296840F951FE90199838883828150
:101B900093819B838A83F0E0E0E012968D919C9183
:101BA00013970097B9F52D913C911197CD010296AD
:101BB000820F931F20913404309135042817390780
:101BC00039F6309751F51092370410923604B093DD
:101BD0003504A0933404BCCFD383C28340815181A8
:101BE000840F951FC817D90761F44E5F5F4F888136
:101BF0009981480F591F518340838A819B81938328
:101C000082832115310509F0B0CFF0933704E093BA
:101C100036049ECFFD01DC01C0CF13821282D7CFE4
:101C2000B0E0A0E0E6E1FEE00C94740B8C010097BC
:101C300051F4CB010E94EB0C8C01C801CDB7DEB78B
:101C4000E0E10C94900BFC01E60FF71F9C01225081
:101C50003109E217F30708F49DC0D901CD91DC9159
:101C60001197C617D70798F0C530D10530F3CE01CC
:101C700004978617970708F3C61BD70B2297C193C3
:101C8000D1936D937C93CF010E94870DD6CF5B01DA
:101C9000AC1ABD0A4C018C0E9D1EA0913604B09169
:101CA0003704512C412CF12CE12C109731F5809107
:101CB0003404909135048815990509F05CC04616E6
:101CC000570608F058C080910001909101010097DB
:101CD00041F48DB79EB74091040150910501841BDA
:101CE000950BE817F90708F055C0F0933504E09319
:101CF0003404F90171836083A0CF8D919C91119779
:101D000012966C90129713967C901397A815B905AC
:101D100059F56C0142E0C40ED11CCA14DB0420F159
:101D2000AC014A195B09DA011296159780F06282BC
:101D3000738251834083D9016D937C93E114F10444
:101D400071F0D7011396FC93EE93129776CF2296FB
:101D50008C0F9D1FF90191838083F301EFCFF093E6
:101D60003704E093360469CF4816590608F42C016D
:101D70007D01D3019ACFCB010E94EB0C7C0100972F
:101D800049F0AE01B8010E94CD0EC8010E94870D36
:101D9000870153CF10E000E050CFFB01DC0102C00F
:101DA00001900D9241505040D8F70895FB01DC019D
:101DB00001900D920020E1F70895FB01DC014150F4
:101DC000504030F08D910190801919F40020B9F73E
:101DD000881B990B0895F894FFCF00003804800009
:101DE00000000000A402D201FF01F10262020E0213
:101DF00054020D0A004443204D6F746F7220436FEC
:101E00006E74726F6C2053797374656D2064656EA7
:101E100067616E2046757A7A79204C6F6769630036
:101E200053697374656D20736961702E2047756EF8
:101E3000616B616E20706572696E746168206265A5
:101E400072696B7574206D656C616C756920536582
:101E50007269616C3A00277327202D204D756C61E3
:101E6000692064656E67616E206B6563657061747F
:101E7000616E20746572656E64616800272B27208F
:101E80002D2054696E676B61746B616E206B6563A6
:101E900065706174616E00272D27202D204B7572AF
:101EA000616E6769206B656365706174616E0027A0
:101EB0007827202D2053746F70206D6F746F72001F
:101EC000277027202D2054616D70696C6B616E2026
:101ED0006E696C61692050574D2064616E205250CC
:101EE0004D207361617420696E69002772585858DB
:101EF0005827202D20536574207461726765742003
:101F000052504D2028636F6E746F683A20723130E2
:101F1000303020756E74756B203130303020525067
:101F20004D290027723027202D204D6174696B6187
:101F30006E206B6F6E74726F6C2052504D00353096
:101F400020002031002052504D2C204375727265C4
:101F50006E743A20002052504D2C204572726F72E0
:101F60003A20002C204368616E67653A20002C20DF
:101F700050574D3A20004D6F6465206B6F6E747240
:101F80006F6C2052504D20616B7469662E20546135
:101F9000726765743A20004D6F6465206B6F6E74D4
:101FA000726F6C2052504D2064696D6174696B6171
:101FB0006E2E004D756C61692064656E67616E20E0
:101FC00050574D3A200050574D202B3A2000537562
:101FD00064616820706164612050574D206D616BB1
:101FE00073696D756D210050574D202D3A200053B7
:101FF0007564616820706164612050574D206D697F
:102000006E696D756D210053544F50202D204D6F1A
:10201000746F722064696D6174696B616E004E69E2
:102020006C61692050574D207361617420696E693D
:102030003A200052504D207361617420696E693AF4
:1020400020005461726765742052504D3A200000A0
:107E0000112484B714BE81FFF0D085E080938100F7
:107E100082E08093C00088E18093C10086E0809377
:107E2000C20080E18093C4008EE0C9D0259A86E02C
:107E300020E33CEF91E0309385002093840096BBD3
:107E4000B09BFECF1D9AA8958150A9F7CC24DD24C4
:107E500088248394B5E0AB2EA1E19A2EF3E0BF2EE7
:107E6000A2D0813461F49FD0082FAFD0023811F036
:107E7000013811F484E001C083E08DD089C08234E0
:107E800011F484E103C0853419F485E0A6D080C0E4
:107E9000853579F488D0E82EFF2485D0082F10E0AE
:107EA000102F00270E291F29000F111F8ED06801E7
:107EB0006FC0863521F484E090D080E0DECF843638
:107EC00009F040C070D06FD0082F6DD080E0C81688
:107ED00080E7D80618F4F601B7BEE895C0E0D1E017
:107EE00062D089930C17E1F7F0E0CF16F0E7DF06D8
:107EF00018F0F601B7BEE89568D007B600FCFDCFD4
:107F0000A601A0E0B1E02C9130E011968C91119780
:107F100090E0982F8827822B932B1296FA010C0160
:107F200087BEE89511244E5F5F4FF1E0A038BF0790
:107F300051F7F601A7BEE89507B600FCFDCF97BE46
:107F4000E89526C08437B1F42ED02DD0F82E2BD052
:107F50003CD0F601EF2C8F010F5F1F4F84911BD097
:107F6000EA94F801C1F70894C11CD11CFA94CF0C13
:107F7000D11C0EC0853739F428D08EE10CD085E9AC
:107F80000AD08FE07ACF813511F488E018D01DD067
:107F900080E101D065CF982F8091C00085FFFCCF94
:107FA0009093C60008958091C00087FFFCCF809118
:107FB000C00084FD01C0A8958091C6000895E0E648
:107FC000F0E098E1908380830895EDDF803219F02E
:107FD00088E0F5DFFFCF84E1DECF1F93182FE3DFCA
:107FE0001150E9F7F2DF1F91089580E0E8DFEE27F6
:047FF000FF270994CA
:027FFE00040479
:00000001FF
