:100000000C945C000C946E000C946E000C946E00CA
:100010000C946E000C946E000C946E000C946E00A8
:100020000C946E000C946E000C946E000C946E0098
:100030000C946E000C946E000C946E000C946E0088
:100040000C9475010C946E000C946E000C946E0070
:100050000C946E000C946E000C946E000C946E0068
:100060000C946E000C946E00000000080002010069
:100070000003040700000000000000000000000072
:10008000250028002B0000000000240027002A0083
:10009000040404040404040402020202020203032E
:1000A0000303030301020408102040800102040836
:1000B000102001020408102011241FBECFEFD8E049
:1000C000DEBFCDBF21E0A0E0B1E001C01D92A930AC
:1000D000B207E1F70E94BF010C941B020C940000D0
:1000E000EDEAF0E02491E9E9F0E08491882399F0C9
:1000F00090E0880F991FFC01EA57FF4FA591B4913A
:10010000FC01E458FF4F859194918FB7F894EC91DE
:10011000E22BEC938FBF0895E1E7F0E02491EDEA44
:10012000F0E09491E9E9F0E0E491EE23C9F02223B4
:1001300039F0233001F1A8F4213019F1223029F1EE
:10014000F0E0EE0FFF1FE458FF4FA591B4912FB7D9
:10015000F894EC91811126C090959E239C932FBF1B
:1001600008952730A9F02830C9F0243049F72091AC
:1001700080002F7D03C0209180002F772093800086
:10018000DFCF24B52F7724BDDBCF24B52F7DFBCF68
:100190002091B0002F772093B000D2CF2091B000F3
:1001A0002F7DF9CF9E2BDACFE1E7F0E0E491E33049
:1001B00029F150F4E130C1F0E230D9F080389105F6
:1001C000BCF580E00C948C00E73011F1E83041F18F
:1001D000E430A1F72091800020622093800090936A
:1001E0008B0080938A00089594B5906894BD87BD74
:1001F000089594B5906294BD88BD089520918000C3
:10020000206820938000909389008093880008954F
:100210009091B00090689093B0008093B3000895DF
:100220009091B00090629093B0008093B4000895D4
:1002300081E0C8CF3FB7F894809105019091060105
:10024000A0910701B091080126B5A89B05C02F3FDA
:1002500019F00196A11DB11D3FBFBA2FA92F982FEC
:100260008827BC01CD01620F711D811D911D42E0E7
:10027000660F771F881F991F4A95D1F708958F92AF
:100280009F92AF92BF92CF92DF92EF92FF920E9425
:100290001A014B015C0188EEC82E83E0D82EE12CB8
:1002A000F12C0E941A01681979098A099B09683E94
:1002B000734081059105A8F321E0C21AD108E10835
:1002C000F10888EE880E83E0981EA11CB11CC114B1
:1002D000D104E104F10429F7FF90EF90DF90CF9073
:1002E000BF90AF909F908F9008951F920F920FB67E
:1002F0000F9211242F933F938F939F93AF93BF93AC
:100300008091010190910201A0910301B09104013B
:100310003091000123E0230F2D3758F50196A11DE0
:10032000B11D209300018093010190930201A093DD
:100330000301B09304018091050190910601A09101
:100340000701B09108010196A11DB11D809305011F
:1003500090930601A0930701B0930801BF91AF915C
:100360009F918F913F912F910F900FBE0F901F90F3
:10037000189526E8230F0296A11DB11DD2CF7894BF
:1003800084B5826084BD84B5816084BD85B582609A
:1003900085BD85B5816085BD80916E00816080934B
:1003A0006E001092810080918100826080938100B4
:1003B00080918100816080938100809180008160C4
:1003C000809380008091B10084608093B10080911F
:1003D000B00081608093B00080917A008460809347
:1003E0007A0080917A00826080937A0080917A000E
:1003F000816080937A0080917A00806880937A008F
:100400001092C1000E947000C0E0D0E00E94700015
:1004100084E690E00E94D4000E943F010E94700098
:1004200088EC90E00E94D4000E943F01209771F375
:0A0430000E940000EBCFF894FFCF0C
:00000001FF
